{
  "contractName": "BankFair",
  "abi": [
    {
      "inputs": [
        {
          "internalType": "address",
          "name": "tokenAddress",
          "type": "address"
        },
        {
          "internalType": "address",
          "name": "protocol",
          "type": "address"
        },
        {
          "internalType": "uint256",
          "name": "minLoanAmount",
          "type": "uint256"
        }
      ],
      "stateMutability": "nonpayable",
      "type": "constructor"
    },
    {
      "anonymous": false,
      "inputs": [
        {
          "indexed": false,
          "internalType": "uint256",
          "name": "loanId",
          "type": "uint256"
        }
      ],
      "name": "LoanApproved",
      "type": "event"
    },
    {
      "anonymous": false,
      "inputs": [
        {
          "indexed": false,
          "internalType": "uint256",
          "name": "loanId",
          "type": "uint256"
        }
      ],
      "name": "LoanCancelled",
      "type": "event"
    },
    {
      "anonymous": false,
      "inputs": [
        {
          "indexed": false,
          "internalType": "uint256",
          "name": "loanId",
          "type": "uint256"
        },
        {
          "indexed": false,
          "internalType": "uint256",
          "name": "amountLost",
          "type": "uint256"
        }
      ],
      "name": "LoanDefaulted",
      "type": "event"
    },
    {
      "anonymous": false,
      "inputs": [
        {
          "indexed": false,
          "internalType": "uint256",
          "name": "loanId",
          "type": "uint256"
        }
      ],
      "name": "LoanDenied",
      "type": "event"
    },
    {
      "anonymous": false,
      "inputs": [
        {
          "indexed": false,
          "internalType": "uint256",
          "name": "loanId",
          "type": "uint256"
        }
      ],
      "name": "LoanRepaid",
      "type": "event"
    },
    {
      "anonymous": false,
      "inputs": [
        {
          "indexed": false,
          "internalType": "uint256",
          "name": "loanId",
          "type": "uint256"
        },
        {
          "indexed": false,
          "internalType": "address",
          "name": "borrower",
          "type": "address"
        }
      ],
      "name": "LoanRequested",
      "type": "event"
    },
    {
      "anonymous": false,
      "inputs": [],
      "name": "StakedAssetsDepleted",
      "type": "event"
    },
    {
      "anonymous": false,
      "inputs": [
        {
          "indexed": false,
          "internalType": "uint256",
          "name": "amount",
          "type": "uint256"
        }
      ],
      "name": "UnstakedLoss",
      "type": "event"
    },
    {
      "inputs": [],
      "name": "ONE_HUNDRED_PERCENT",
      "outputs": [
        {
          "internalType": "uint16",
          "name": "",
          "type": "uint16"
        }
      ],
      "stateMutability": "view",
      "type": "function",
      "constant": true
    },
    {
      "inputs": [],
      "name": "PERCENT_DECIMALS",
      "outputs": [
        {
          "internalType": "uint16",
          "name": "",
          "type": "uint16"
        }
      ],
      "stateMutability": "view",
      "type": "function",
      "constant": true
    },
    {
      "inputs": [],
      "name": "SAFE_MAX_APR",
      "outputs": [
        {
          "internalType": "uint16",
          "name": "",
          "type": "uint16"
        }
      ],
      "stateMutability": "view",
      "type": "function",
      "constant": true
    },
    {
      "inputs": [],
      "name": "SAFE_MAX_DURATION",
      "outputs": [
        {
          "internalType": "uint256",
          "name": "",
          "type": "uint256"
        }
      ],
      "stateMutability": "view",
      "type": "function",
      "constant": true
    },
    {
      "inputs": [],
      "name": "SAFE_MIN_AMOUNT",
      "outputs": [
        {
          "internalType": "uint256",
          "name": "",
          "type": "uint256"
        }
      ],
      "stateMutability": "view",
      "type": "function",
      "constant": true
    },
    {
      "inputs": [],
      "name": "SAFE_MIN_APR",
      "outputs": [
        {
          "internalType": "uint16",
          "name": "",
          "type": "uint16"
        }
      ],
      "stateMutability": "view",
      "type": "function",
      "constant": true
    },
    {
      "inputs": [],
      "name": "SAFE_MIN_DURATION",
      "outputs": [
        {
          "internalType": "uint256",
          "name": "",
          "type": "uint256"
        }
      ],
      "stateMutability": "view",
      "type": "function",
      "constant": true
    },
    {
      "inputs": [
        {
          "internalType": "uint256",
          "name": "_loanId",
          "type": "uint256"
        }
      ],
      "name": "approveLoan",
      "outputs": [],
      "stateMutability": "nonpayable",
      "type": "function"
    },
    {
      "inputs": [],
      "name": "borrowedFunds",
      "outputs": [
        {
          "internalType": "uint256",
          "name": "",
          "type": "uint256"
        }
      ],
      "stateMutability": "view",
      "type": "function",
      "constant": true
    },
    {
      "inputs": [
        {
          "internalType": "uint256",
          "name": "loanId",
          "type": "uint256"
        }
      ],
      "name": "cancelLoan",
      "outputs": [],
      "stateMutability": "nonpayable",
      "type": "function"
    },
    {
      "inputs": [],
      "name": "defaultAPR",
      "outputs": [
        {
          "internalType": "uint16",
          "name": "",
          "type": "uint16"
        }
      ],
      "stateMutability": "view",
      "type": "function",
      "constant": true
    },
    {
      "inputs": [],
      "name": "defaultLateAPRDelta",
      "outputs": [
        {
          "internalType": "uint16",
          "name": "",
          "type": "uint16"
        }
      ],
      "stateMutability": "view",
      "type": "function",
      "constant": true
    },
    {
      "inputs": [
        {
          "internalType": "uint256",
          "name": "loanId",
          "type": "uint256"
        }
      ],
      "name": "defaultLoan",
      "outputs": [],
      "stateMutability": "nonpayable",
      "type": "function"
    },
    {
      "inputs": [
        {
          "internalType": "uint256",
          "name": "loanId",
          "type": "uint256"
        }
      ],
      "name": "denyLoan",
      "outputs": [],
      "stateMutability": "nonpayable",
      "type": "function"
    },
    {
      "inputs": [],
      "name": "loanApprovalStakePercent",
      "outputs": [
        {
          "internalType": "uint16",
          "name": "",
          "type": "uint16"
        }
      ],
      "stateMutability": "view",
      "type": "function",
      "constant": true
    },
    {
      "inputs": [
        {
          "internalType": "uint256",
          "name": "loanId",
          "type": "uint256"
        }
      ],
      "name": "loanBalanceDue",
      "outputs": [
        {
          "internalType": "uint256",
          "name": "",
          "type": "uint256"
        }
      ],
      "stateMutability": "view",
      "type": "function",
      "constant": true
    },
    {
      "inputs": [
        {
          "internalType": "uint256",
          "name": "",
          "type": "uint256"
        }
      ],
      "name": "loanDetails",
      "outputs": [
        {
          "internalType": "uint256",
          "name": "loanId",
          "type": "uint256"
        },
        {
          "internalType": "uint256",
          "name": "totalAmountRepaid",
          "type": "uint256"
        },
        {
          "internalType": "uint256",
          "name": "baseAmountRepaid",
          "type": "uint256"
        },
        {
          "internalType": "uint256",
          "name": "interestPaid",
          "type": "uint256"
        },
        {
          "internalType": "uint256",
          "name": "approvedTime",
          "type": "uint256"
        },
        {
          "internalType": "uint256",
          "name": "lastPaymentTime",
          "type": "uint256"
        }
      ],
      "stateMutability": "view",
      "type": "function",
      "constant": true
    },
    {
      "inputs": [
        {
          "internalType": "address",
          "name": "",
          "type": "address"
        }
      ],
      "name": "loanFunds",
      "outputs": [
        {
          "internalType": "uint256",
          "name": "",
          "type": "uint256"
        }
      ],
      "stateMutability": "view",
      "type": "function",
      "constant": true
    },
    {
      "inputs": [],
      "name": "loanFundsPendingWithdrawal",
      "outputs": [
        {
          "internalType": "uint256",
          "name": "",
          "type": "uint256"
        }
      ],
      "stateMutability": "view",
      "type": "function",
      "constant": true
    },
    {
      "inputs": [
        {
          "internalType": "uint256",
          "name": "",
          "type": "uint256"
        }
      ],
      "name": "loans",
      "outputs": [
        {
          "internalType": "uint256",
          "name": "id",
          "type": "uint256"
        },
        {
          "internalType": "address",
          "name": "borrower",
          "type": "address"
        },
        {
          "internalType": "uint256",
          "name": "amount",
          "type": "uint256"
        },
        {
          "internalType": "uint256",
          "name": "duration",
          "type": "uint256"
        },
        {
          "internalType": "uint16",
          "name": "apr",
          "type": "uint16"
        },
        {
          "internalType": "uint16",
          "name": "lateAPRDelta",
          "type": "uint16"
        },
        {
          "internalType": "uint256",
          "name": "requestedTime",
          "type": "uint256"
        },
        {
          "internalType": "enum Lender.LoanStatus",
          "name": "status",
          "type": "uint8"
        }
      ],
      "stateMutability": "view",
      "type": "function",
      "constant": true
    },
    {
      "inputs": [],
      "name": "loansCount",
      "outputs": [
        {
          "internalType": "uint256",
          "name": "",
          "type": "uint256"
        }
      ],
      "stateMutability": "view",
      "type": "function",
      "constant": true
    },
    {
      "inputs": [],
      "name": "manager",
      "outputs": [
        {
          "internalType": "address",
          "name": "",
          "type": "address"
        }
      ],
      "stateMutability": "view",
      "type": "function",
      "constant": true
    },
    {
      "inputs": [],
      "name": "managerLeveragedEarningPercent",
      "outputs": [
        {
          "internalType": "uint16",
          "name": "",
          "type": "uint16"
        }
      ],
      "stateMutability": "view",
      "type": "function",
      "constant": true
    },
    {
      "inputs": [],
      "name": "maxDuration",
      "outputs": [
        {
          "internalType": "uint256",
          "name": "",
          "type": "uint256"
        }
      ],
      "stateMutability": "view",
      "type": "function",
      "constant": true
    },
    {
      "inputs": [],
      "name": "minAmount",
      "outputs": [
        {
          "internalType": "uint256",
          "name": "",
          "type": "uint256"
        }
      ],
      "stateMutability": "view",
      "type": "function",
      "constant": true
    },
    {
      "inputs": [],
      "name": "minDuration",
      "outputs": [
        {
          "internalType": "uint256",
          "name": "",
          "type": "uint256"
        }
      ],
      "stateMutability": "view",
      "type": "function",
      "constant": true
    },
    {
      "inputs": [],
      "name": "poolCanLend",
      "outputs": [
        {
          "internalType": "bool",
          "name": "",
          "type": "bool"
        }
      ],
      "stateMutability": "view",
      "type": "function",
      "constant": true
    },
    {
      "inputs": [],
      "name": "poolFunds",
      "outputs": [
        {
          "internalType": "uint256",
          "name": "",
          "type": "uint256"
        }
      ],
      "stateMutability": "view",
      "type": "function",
      "constant": true
    },
    {
      "inputs": [],
      "name": "poolFundsLimit",
      "outputs": [
        {
          "internalType": "uint256",
          "name": "",
          "type": "uint256"
        }
      ],
      "stateMutability": "view",
      "type": "function",
      "constant": true
    },
    {
      "inputs": [],
      "name": "poolLiquidity",
      "outputs": [
        {
          "internalType": "uint256",
          "name": "",
          "type": "uint256"
        }
      ],
      "stateMutability": "view",
      "type": "function",
      "constant": true
    },
    {
      "inputs": [],
      "name": "protocolEarningPercent",
      "outputs": [
        {
          "internalType": "uint16",
          "name": "",
          "type": "uint16"
        }
      ],
      "stateMutability": "view",
      "type": "function",
      "constant": true
    },
    {
      "inputs": [
        {
          "internalType": "address",
          "name": "wallet",
          "type": "address"
        }
      ],
      "name": "protocolEarningsOf",
      "outputs": [
        {
          "internalType": "uint256",
          "name": "",
          "type": "uint256"
        }
      ],
      "stateMutability": "view",
      "type": "function",
      "constant": true
    },
    {
      "inputs": [],
      "name": "protocolWallet",
      "outputs": [
        {
          "internalType": "address",
          "name": "",
          "type": "address"
        }
      ],
      "stateMutability": "view",
      "type": "function",
      "constant": true
    },
    {
      "inputs": [
        {
          "internalType": "address",
          "name": "",
          "type": "address"
        }
      ],
      "name": "recentLoanIdOf",
      "outputs": [
        {
          "internalType": "uint256",
          "name": "",
          "type": "uint256"
        }
      ],
      "stateMutability": "view",
      "type": "function",
      "constant": true
    },
    {
      "inputs": [
        {
          "internalType": "uint256",
          "name": "loanId",
          "type": "uint256"
        },
        {
          "internalType": "uint256",
          "name": "amount",
          "type": "uint256"
        }
      ],
      "name": "repay",
      "outputs": [
        {
          "internalType": "uint256",
          "name": "",
          "type": "uint256"
        },
        {
          "internalType": "uint256",
          "name": "",
          "type": "uint256"
        }
      ],
      "stateMutability": "nonpayable",
      "type": "function"
    },
    {
      "inputs": [
        {
          "internalType": "uint256",
          "name": "requestedAmount",
          "type": "uint256"
        },
        {
          "internalType": "uint256",
          "name": "loanDuration",
          "type": "uint256"
        }
      ],
      "name": "requestLoan",
      "outputs": [
        {
          "internalType": "uint256",
          "name": "",
          "type": "uint256"
        }
      ],
      "stateMutability": "nonpayable",
      "type": "function"
    },
    {
      "inputs": [
        {
          "internalType": "uint16",
          "name": "apr",
          "type": "uint16"
        }
      ],
      "name": "setDefaultAPR",
      "outputs": [],
      "stateMutability": "nonpayable",
      "type": "function"
    },
    {
      "inputs": [
        {
          "internalType": "uint16",
          "name": "lateAPRDelta",
          "type": "uint16"
        }
      ],
      "name": "setDefaultLateAPRDelta",
      "outputs": [],
      "stateMutability": "nonpayable",
      "type": "function"
    },
    {
      "inputs": [
        {
          "internalType": "uint256",
          "name": "duration",
          "type": "uint256"
        }
      ],
      "name": "setLoanMaxDuration",
      "outputs": [],
      "stateMutability": "nonpayable",
      "type": "function"
    },
    {
      "inputs": [
        {
          "internalType": "uint256",
          "name": "duration",
          "type": "uint256"
        }
      ],
      "name": "setLoanMinDuration",
      "outputs": [],
      "stateMutability": "nonpayable",
      "type": "function"
    },
    {
      "inputs": [
        {
          "internalType": "uint256",
          "name": "minLoanAmount",
          "type": "uint256"
        }
      ],
      "name": "setMinLoanAmount",
      "outputs": [],
      "stateMutability": "nonpayable",
      "type": "function"
    },
    {
      "inputs": [],
      "name": "stakedShares",
      "outputs": [
        {
          "internalType": "uint256",
          "name": "",
          "type": "uint256"
        }
      ],
      "stateMutability": "view",
      "type": "function",
      "constant": true
    },
    {
      "inputs": [],
      "name": "targetStakePercent",
      "outputs": [
        {
          "internalType": "uint16",
          "name": "",
          "type": "uint16"
        }
      ],
      "stateMutability": "view",
      "type": "function",
      "constant": true
    },
    {
      "inputs": [],
      "name": "token",
      "outputs": [
        {
          "internalType": "address",
          "name": "",
          "type": "address"
        }
      ],
      "stateMutability": "view",
      "type": "function",
      "constant": true
    },
    {
      "inputs": [],
      "name": "tokenBalance",
      "outputs": [
        {
          "internalType": "uint256",
          "name": "",
          "type": "uint256"
        }
      ],
      "stateMutability": "view",
      "type": "function",
      "constant": true
    },
    {
      "inputs": [],
      "name": "totalPoolShares",
      "outputs": [
        {
          "internalType": "uint256",
          "name": "",
          "type": "uint256"
        }
      ],
      "stateMutability": "view",
      "type": "function",
      "constant": true
    },
    {
      "inputs": [],
      "name": "withdrawProtocolEarnings",
      "outputs": [],
      "stateMutability": "nonpayable",
      "type": "function"
    },
    {
      "inputs": [
        {
          "internalType": "uint256",
          "name": "amount",
          "type": "uint256"
        }
      ],
      "name": "deposit",
      "outputs": [],
      "stateMutability": "nonpayable",
      "type": "function"
    },
    {
      "inputs": [
        {
          "internalType": "uint256",
          "name": "amount",
          "type": "uint256"
        }
      ],
      "name": "withdraw",
      "outputs": [],
      "stateMutability": "nonpayable",
      "type": "function"
    },
    {
      "inputs": [
        {
          "internalType": "address",
          "name": "wallet",
          "type": "address"
        }
      ],
      "name": "balanceOf",
      "outputs": [
        {
          "internalType": "uint256",
          "name": "",
          "type": "uint256"
        }
      ],
      "stateMutability": "view",
      "type": "function",
      "constant": true
    },
    {
      "inputs": [],
      "name": "amountDepositable",
      "outputs": [
        {
          "internalType": "uint256",
          "name": "",
          "type": "uint256"
        }
      ],
      "stateMutability": "view",
      "type": "function",
      "constant": true
    },
    {
      "inputs": [],
      "name": "amountWithdrawable",
      "outputs": [
        {
          "internalType": "uint256",
          "name": "",
          "type": "uint256"
        }
      ],
      "stateMutability": "view",
      "type": "function",
      "constant": true
    },
    {
      "inputs": [
        {
          "internalType": "uint256",
          "name": "loanId",
          "type": "uint256"
        }
      ],
      "name": "borrow",
      "outputs": [],
      "stateMutability": "nonpayable",
      "type": "function"
    },
    {
      "inputs": [
        {
          "internalType": "uint256",
          "name": "amount",
          "type": "uint256"
        }
      ],
      "name": "stake",
      "outputs": [],
      "stateMutability": "nonpayable",
      "type": "function"
    },
    {
      "inputs": [
        {
          "internalType": "uint256",
          "name": "amount",
          "type": "uint256"
        }
      ],
      "name": "unstake",
      "outputs": [],
      "stateMutability": "nonpayable",
      "type": "function"
    },
    {
      "inputs": [],
      "name": "balanceStaked",
      "outputs": [
        {
          "internalType": "uint256",
          "name": "",
          "type": "uint256"
        }
      ],
      "stateMutability": "view",
      "type": "function",
      "constant": true
    },
    {
      "inputs": [],
      "name": "amountUnstakable",
      "outputs": [
        {
          "internalType": "uint256",
          "name": "",
          "type": "uint256"
        }
      ],
      "stateMutability": "view",
      "type": "function",
      "constant": true
    }
  ],
  "bytecode": "0x60806040526064600c60006101000a81548161ffff021916908361ffff1602179055506105dc600c60026101000a81548161ffff021916908361ffff1602179055503480156200004e57600080fd5b50604051620062163803806200621683398181016040528101906200007491906200044c565b8282828282600073ffffffffffffffffffffffffffffffffffffffff168273ffffffffffffffffffffffffffffffffffffffff161415620000ec576040517f08c379a0000000000000000000000000000000000000000000000000000000008152600401620000e3906200052f565b60405180910390fd5b600073ffffffffffffffffffffffffffffffffffffffff168173ffffffffffffffffffffffffffffffffffffffff1614156200015f576040517f08c379a00000000000000000000000000000000000000000000000000000000081526004016200015690620005c7565b60405180910390fd5b336000806101000a81548173ffffffffffffffffffffffffffffffffffffffff021916908373ffffffffffffffffffffffffffffffffffffffff16021790555080600160006101000a81548173ffffffffffffffffffffffffffffffffffffffff021916908373ffffffffffffffffffffffffffffffffffffffff16021790555081600260006101000a81548173ffffffffffffffffffffffffffffffffffffffff021916908373ffffffffffffffffffffffffffffffffffffffff160217905550600060038190555060006007819055506000600881905550600060048190555060006005819055506064600960006101000a81548161ffff021916908361ffff1602179055506064600960026101000a81548161ffff021916908361ffff160217905550620002b96103e861ffff16600c60029054906101000a900461ffff1661ffff166200038f60201b6200361c1790919060201c565b600d819055505050600160128190555080620f4240111562000312576040517f08c379a000000000000000000000000000000000000000000000000000000000815260040162000309906200065f565b60405180910390fd5b80600f8190555061012c600e60006101000a81548161ffff021916908361ffff1602179055506032600e60026101000a81548161ffff021916908361ffff16021790555062015180601081905550635fdd4280601181905550600060068190555060006014819055506000601581905550505050505050620006eb565b600081836200039f9190620006b0565b905092915050565b600080fd5b600073ffffffffffffffffffffffffffffffffffffffff82169050919050565b6000620003d982620003ac565b9050919050565b620003eb81620003cc565b8114620003f757600080fd5b50565b6000815190506200040b81620003e0565b92915050565b6000819050919050565b620004268162000411565b81146200043257600080fd5b50565b60008151905062000446816200041b565b92915050565b600080600060608486031215620004685762000467620003a7565b5b60006200047886828701620003fa565b93505060206200048b86828701620003fa565b92505060406200049e8682870162000435565b9150509250925092565b600082825260208201905092915050565b7f42616e6b466169723a20706f6f6c20746f6b656e20616464726573732069732060008201527f6e6f742073657400000000000000000000000000000000000000000000000000602082015250565b600062000517602783620004a8565b91506200052482620004b9565b604082019050919050565b600060208201905081810360008301526200054a8162000508565b9050919050565b7f42616e6b466169723a2070726f746f636f6c2077616c6c65742061646472657360008201527f73206973206e6f74207365740000000000000000000000000000000000000000602082015250565b6000620005af602c83620004a8565b9150620005bc8262000551565b604082019050919050565b60006020820190508181036000830152620005e281620005a0565b9050919050565b7f4e6577206d696e206c6f616e20616d6f756e74206973206c657373207468616e60008201527f207468652073616665206c696d69740000000000000000000000000000000000602082015250565b600062000647602f83620004a8565b91506200065482620005e9565b604082019050919050565b600060208201905081810360008301526200067a8162000638565b9050919050565b7f4e487b7100000000000000000000000000000000000000000000000000000000600052601160045260246000fd5b6000620006bd8262000411565b9150620006ca8362000411565b925082821015620006e057620006df62000681565b5b828203905092915050565b615b1b80620006fb6000396000f3fe608060405234801561001057600080fd5b50600436106103835760003560e01c806384f509f9116101de578063c0ab448c1161010f578063e0dc1941116100ad578063edbe40fb1161007c578063edbe40fb14610a3d578063f46636e014610a5b578063fb7a05cd14610a79578063fc0c546a14610a9757610383565b8063e0dc1941146109ae578063e16f48d0146109cc578063e1ec3c68146109e8578063e4ac6c1b14610a1f57610383565b8063d220fc78116100e9578063d220fc7814610911578063d8aed1451461092f578063da7f428d14610960578063dd0081c71461099057610383565b8063c0ab448c146108bb578063c5ebeaec146108d7578063ccdec704146108f357610383565b8063a6b131d41161017c578063b6b55f2511610156578063b6b55f2514610847578063bc147a3914610863578063bc2104d214610881578063bdbfa3de1461089f57610383565b8063a6b131d4146107dd578063aa452fa6146107fb578063aadc1ac11461082b57610383565b80639b2cb5d8116101b85780639b2cb5d8146107675780639d11ed75146107855780639e1a4d19146107a3578063a694fc3a146107c157610383565b806384f509f91461072357806385743a031461072d57806390a577ef1461074957610383565b806337a6de78116102b857806361a29872116102565780636db5c8fd116102305780636db5c8fd1461068257806370a08231146106a05780637aa489bb146106d05780637eec83a51461070557610383565b806361a298721461062a57806367bf61c4146106485780636d0a67de1461066457610383565b806340c62fba1161029257806340c62fba146105b2578063481c6a75146105d057806355b009b2146105ee578063567157611461060c57610383565b806337a6de781461055a57806337c61968146105765780633b228b3e1461059457610383565b8063203041d6116103255780632d68773d116102ff5780632d68773d146104d45780632e17de78146104f25780632e1a7d4d1461050e57806331b9600f1461052a57610383565b8063203041d61461047c57806321d8096b1461049a5780632b312cde146104b857610383565b80630ab20f1f116103615780630ab20f1f146103f4578063169d643914610410578063191d5bba146104405780631d4d6ce01461045e57610383565b80630596e6a01461038857806306d6e63f146103b857806307fa2a7f146103d6575b600080fd5b6103a2600480360381019061039d91906143c3565b610ab5565b6040516103af9190614409565b60405180910390f35b6103c0610acd565b6040516103cd9190614433565b60405180910390f35b6103de610af3565b6040516103eb919061446b565b60405180910390f35b61040e600480360381019061040991906144b2565b610b07565b005b61042a600480360381019061042591906143c3565b610c17565b6040516104379190614409565b60405180910390f35b610448610c60565b6040516104559190614409565b60405180910390f35b610466610c68565b6040516104739190614409565b60405180910390f35b610484610c6e565b604051610491919061446b565b60405180910390f35b6104a2610c73565b6040516104af9190614409565b60405180910390f35b6104d260048036038101906104cd919061450b565b610c8e565b005b6104dc610d6c565b6040516104e9919061446b565b60405180910390f35b61050c6004803603810190610507919061450b565b610d80565b005b6105286004803603810190610523919061450b565b610ed9565b005b610544600480360381019061053f919061450b565b6110c7565b6040516105519190614409565b60405180910390f35b610574600480360381019061056f919061450b565b6111bc565b005b61057e611420565b60405161058b919061446b565b60405180910390f35b61059c611426565b6040516105a99190614409565b60405180910390f35b6105ba61142c565b6040516105c7919061446b565b60405180910390f35b6105d8611440565b6040516105e59190614433565b60405180910390f35b6105f6611464565b6040516106039190614553565b60405180910390f35b610614611497565b6040516106219190614409565b60405180910390f35b61063261149d565b60405161063f9190614409565b60405180910390f35b610662600480360381019061065d919061450b565b6114a4565b005b61066c611721565b6040516106799190614409565b60405180910390f35b61068a611727565b6040516106979190614409565b60405180910390f35b6106ba60048036038101906106b591906143c3565b61172d565b6040516106c79190614409565b60405180910390f35b6106ea60048036038101906106e5919061450b565b61177e565b6040516106fc9695949392919061456e565b60405180910390f35b61070d6117ba565b60405161071a9190614409565b60405180910390f35b61072b611849565b005b610747600480360381019061074291906144b2565b611a21565b005b610751611b31565b60405161075e9190614409565b60405180910390f35b61076f611b37565b60405161077c9190614409565b60405180910390f35b61078d611b3d565b60405161079a9190614409565b60405180910390f35b6107ab611b53565b6040516107b89190614409565b60405180910390f35b6107db60048036038101906107d6919061450b565b611b59565b005b6107e5611c5e565b6040516107f29190614409565b60405180910390f35b610815600480360381019061081091906145cf565b611c64565b6040516108229190614409565b60405180910390f35b6108456004803603810190610840919061450b565b61222a565b005b610861600480360381019061085c919061450b565b612611565b005b61086b6127ff565b6040516108789190614409565b60405180910390f35b610889612806565b6040516108969190614409565b60405180910390f35b6108b960048036038101906108b4919061450b565b61280c565b005b6108d560048036038101906108d0919061450b565b612a65565b005b6108f160048036038101906108ec919061450b565b612b98565b005b6108fb612e2e565b604051610908919061446b565b60405180910390f35b610919612e42565b604051610926919061446b565b60405180910390f35b610949600480360381019061094491906145cf565b612e56565b60405161095792919061460f565b60405180910390f35b61097a600480360381019061097591906143c3565b613392565b6040516109879190614409565b60405180910390f35b6109986133aa565b6040516109a5919061446b565b60405180910390f35b6109b66133b0565b6040516109c39190614409565b60405180910390f35b6109e660048036038101906109e1919061450b565b6133e3565b005b610a0260048036038101906109fd919061450b565b613516565b604051610a169897969594939291906146af565b60405180910390f35b610a276135a7565b604051610a34919061446b565b60405180910390f35b610a456135bb565b604051610a52919061446b565b60405180910390f35b610a636135c0565b604051610a709190614409565b60405180910390f35b610a816135f0565b604051610a8e9190614409565b60405180910390f35b610a9f6135f6565b604051610aac9190614433565b60405180910390f35b60166020528060005260406000206000915090505481565b600160009054906101000a900473ffffffffffffffffffffffffffffffffffffffff1681565b600c60009054906101000a900461ffff1681565b60008054906101000a900473ffffffffffffffffffffffffffffffffffffffff1673ffffffffffffffffffffffffffffffffffffffff163373ffffffffffffffffffffffffffffffffffffffff1614610b95576040517f08c379a0000000000000000000000000000000000000000000000000000000008152600401610b8c906147b0565b60405180910390fd5b8061ffff16600061ffff1611158015610bb857506103e861ffff168161ffff1611155b610bf7576040517f08c379a0000000000000000000000000000000000000000000000000000000008152600401610bee9061481c565b60405180910390fd5b80600e60006101000a81548161ffff021916908361ffff16021790555050565b6000600b60008373ffffffffffffffffffffffffffffffffffffffff1673ffffffffffffffffffffffffffffffffffffffff168152602001908152602001600020549050919050565b635fdd428081565b60155481565b600081565b6000610c89600654610c843361172d565b613632565b905090565b60008054906101000a900473ffffffffffffffffffffffffffffffffffffffff1673ffffffffffffffffffffffffffffffffffffffff163373ffffffffffffffffffffffffffffffffffffffff1614610d1c576040517f08c379a0000000000000000000000000000000000000000000000000000000008152600401610d13906147b0565b60405180910390fd5b80620f42401115610d62576040517f08c379a0000000000000000000000000000000000000000000000000000000008152600401610d59906148ae565b60405180910390fd5b80600f8190555050565b600e60009054906101000a900461ffff1681565b60008054906101000a900473ffffffffffffffffffffffffffffffffffffffff1673ffffffffffffffffffffffffffffffffffffffff163373ffffffffffffffffffffffffffffffffffffffff1614610e0e576040517f08c379a0000000000000000000000000000000000000000000000000000000008152600401610e05906147b0565b60405180910390fd5b60008111610e51576040517f08c379a0000000000000000000000000000000000000000000000000000000008152600401610e489061491a565b60405180910390fd5b610e596117ba565b811115610e9b576040517f08c379a0000000000000000000000000000000000000000000000000000000008152600401610e92906149ac565b60405180910390fd5b6000610ea68261364b565b9050610ebd8160085461361c90919063ffffffff16565b600881905550610ecb613688565b610ed4826136bf565b505050565b6000339050600073ffffffffffffffffffffffffffffffffffffffff168173ffffffffffffffffffffffffffffffffffffffff161415610f4e576040517f08c379a0000000000000000000000000000000000000000000000000000000008152600401610f4590614a3e565b60405180910390fd5b60008054906101000a900473ffffffffffffffffffffffffffffffffffffffff1673ffffffffffffffffffffffffffffffffffffffff168173ffffffffffffffffffffffffffffffffffffffff1614158015610ff85750600160009054906101000a900473ffffffffffffffffffffffffffffffffffffffff1673ffffffffffffffffffffffffffffffffffffffff168173ffffffffffffffffffffffffffffffffffffffff1614155b611037576040517f08c379a000000000000000000000000000000000000000000000000000000000815260040161102e90614ad0565b60405180910390fd5b6000601960008373ffffffffffffffffffffffffffffffffffffffff1673ffffffffffffffffffffffffffffffffffffffff16815260200190815260200160002054146110b9576040517f08c379a00000000000000000000000000000000000000000000000000000000081526004016110b090614b3c565b60405180910390fd5b6110c2826136bf565b505050565b6000816004600060176000848152602001908152602001600020905060008160000154141561112b576040517f08c379a000000000000000000000000000000000000000000000000000000000815260040161112290614ba8565b60405180910390fd5b81600681111561113e5761113d614638565b5b8160060160009054906101000a900460ff16600681111561116257611161614638565b5b146111a2576040517f08c379a000000000000000000000000000000000000000000000000000000000815260040161119990614c3a565b60405180910390fd5b60006111ad86613868565b50905080945050505050919050565b60008054906101000a900473ffffffffffffffffffffffffffffffffffffffff1673ffffffffffffffffffffffffffffffffffffffff163373ffffffffffffffffffffffffffffffffffffffff161461124a576040517f08c379a0000000000000000000000000000000000000000000000000000000008152600401611241906147b0565b60405180910390fd5b806000806017600084815260200190815260200160002090506000816000015414156112ab576040517f08c379a00000000000000000000000000000000000000000000000000000000081526004016112a290614ba8565b60405180910390fd5b8160068111156112be576112bd614638565b5b8160060160009054906101000a900460ff1660068111156112e2576112e1614638565b5b14611322576040517f08c379a000000000000000000000000000000000000000000000000000000000815260040161131990614c3a565b60405180910390fd5b600060176000868152602001908152602001600020905060018160060160006101000a81548160ff0219169083600681111561136157611360614638565b5b02179055506000601360008360010160009054906101000a900473ffffffffffffffffffffffffffffffffffffffff1673ffffffffffffffffffffffffffffffffffffffff1673ffffffffffffffffffffffffffffffffffffffff16815260200190815260200160002060006101000a81548160ff0219169083151502179055507f5956e96c1732abcf3ab44b50ebbf9bfa346e1d99dfc0f6edeefbac8de543bdc7856040516114119190614409565b60405180910390a15050505050565b6103e881565b60065481565b600c60029054906101000a900461ffff1681565b60008054906101000a900473ffffffffffffffffffffffffffffffffffffffff1681565b600061148d600754600960029054906101000a900461ffff1661ffff166103e861ffff16613949565b6008541015905090565b60105481565b6201518081565b60008054906101000a900473ffffffffffffffffffffffffffffffffffffffff1673ffffffffffffffffffffffffffffffffffffffff163373ffffffffffffffffffffffffffffffffffffffff1614611532576040517f08c379a0000000000000000000000000000000000000000000000000000000008152600401611529906147b0565b60405180910390fd5b8060046000601760008481526020019081526020016000209050600081600001541415611594576040517f08c379a000000000000000000000000000000000000000000000000000000000815260040161158b90614ba8565b60405180910390fd5b8160068111156115a7576115a6614638565b5b8160060160009054906101000a900460ff1660068111156115cb576115ca614638565b5b1461160b576040517f08c379a000000000000000000000000000000000000000000000000000000000815260040161160290614c3a565b60405180910390fd5b6000601760008681526020019081526020016000209050600060186000878152602001908152602001600020905060068260060160006101000a81548160ff0219169083600681111561166157611660614638565b5b02179055506000611683826001015484600201546139b890919063ffffffff16565b9150507ff5c2e2ff5a0aa88c6e9352be55b58e2c44042366ea1a2e7a63b3b8ad3ef36c4987826040516116b792919061460f565b60405180910390a160008111156116d2576116d1816139e0565b5b826002015482600201541015611718576117116117008360020154856002015461361c90919063ffffffff16565b60145461361c90919063ffffffff16565b6014819055505b50505050505050565b60075481565b60115481565b6000611777600a60008473ffffffffffffffffffffffffffffffffffffffff1673ffffffffffffffffffffffffffffffffffffffff16815260200190815260200160002054613b24565b9050919050565b60186020528060005260406000206000915090508060000154908060010154908060020154908060030154908060040154908060050154905086565b6000806117d460085460075461361c90919063ffffffff16565b9050600061181882600960009054906101000a900461ffff1661ffff16600960009054906101000a900461ffff166103e861180f9190614c89565b61ffff16613949565b905061184260065461183d6118388460085461361c90919063ffffffff16565b613b24565b613632565b9250505090565b6000600b60003373ffffffffffffffffffffffffffffffffffffffff1673ffffffffffffffffffffffffffffffffffffffff16815260200190815260200160002054116118cb576040517f08c379a00000000000000000000000000000000000000000000000000000000081526004016118c290614d2f565b60405180910390fd5b6000600b60003373ffffffffffffffffffffffffffffffffffffffff1673ffffffffffffffffffffffffffffffffffffffff1681526020019081526020016000205490506000600b60003373ffffffffffffffffffffffffffffffffffffffff1673ffffffffffffffffffffffffffffffffffffffff168152602001908152602001600020819055506119698160035461361c90919063ffffffff16565b6003819055506000600260009054906101000a900473ffffffffffffffffffffffffffffffffffffffff1673ffffffffffffffffffffffffffffffffffffffff1663a9059cbb33846040518363ffffffff1660e01b81526004016119ce929190614d4f565b6020604051808303816000875af11580156119ed573d6000803e3d6000fd5b505050506040513d601f19601f82011682018060405250810190611a119190614da4565b905080611a1d57600080fd5b5050565b60008054906101000a900473ffffffffffffffffffffffffffffffffffffffff1673ffffffffffffffffffffffffffffffffffffffff163373ffffffffffffffffffffffffffffffffffffffff1614611aaf576040517f08c379a0000000000000000000000000000000000000000000000000000000008152600401611aa6906147b0565b60405180910390fd5b8061ffff16600061ffff1611158015611ad257506103e861ffff168161ffff1611155b611b11576040517f08c379a0000000000000000000000000000000000000000000000000000000008152600401611b089061481c565b60405180910390fd5b80600e60026101000a81548161ffff021916908361ffff16021790555050565b60085481565b600f5481565b60006001601254611b4e9190614dd1565b905090565b60035481565b60008054906101000a900473ffffffffffffffffffffffffffffffffffffffff1673ffffffffffffffffffffffffffffffffffffffff163373ffffffffffffffffffffffffffffffffffffffff1614611be7576040517f08c379a0000000000000000000000000000000000000000000000000000000008152600401611bde906147b0565b60405180910390fd5b60008111611c2a576040517f08c379a0000000000000000000000000000000000000000000000000000000008152600401611c2190614e51565b60405180910390fd5b6000611c3582613b5b565b9050611c4c81600854613d6390919063ffffffff16565b600881905550611c5a613688565b5050565b60145481565b600080339050600073ffffffffffffffffffffffffffffffffffffffff168173ffffffffffffffffffffffffffffffffffffffff161415611cda576040517f08c379a0000000000000000000000000000000000000000000000000000000008152600401611cd190614a3e565b60405180910390fd5b60008054906101000a900473ffffffffffffffffffffffffffffffffffffffff1673ffffffffffffffffffffffffffffffffffffffff168173ffffffffffffffffffffffffffffffffffffffff1614158015611d845750600160009054906101000a900473ffffffffffffffffffffffffffffffffffffffff1673ffffffffffffffffffffffffffffffffffffffff168173ffffffffffffffffffffffffffffffffffffffff1614155b611dc3576040517f08c379a0000000000000000000000000000000000000000000000000000000008152600401611dba90614ad0565b60405180910390fd5b6000600a60008373ffffffffffffffffffffffffffffffffffffffff1673ffffffffffffffffffffffffffffffffffffffff1681526020019081526020016000205414611e45576040517f08c379a0000000000000000000000000000000000000000000000000000000008152600401611e3c90614ebd565b60405180910390fd5b60001515601360003373ffffffffffffffffffffffffffffffffffffffff1673ffffffffffffffffffffffffffffffffffffffff16815260200190815260200160002060009054906101000a900460ff16151514611ed8576040517f08c379a0000000000000000000000000000000000000000000000000000000008152600401611ecf90614f4f565b60405180910390fd5b60008411611f1b576040517f08c379a0000000000000000000000000000000000000000000000000000000008152600401611f1290614fbb565b60405180910390fd5b826010541115611f60576040517f08c379a0000000000000000000000000000000000000000000000000000000008152600401611f579061504d565b60405180910390fd5b826011541015611fa5576040517f08c379a0000000000000000000000000000000000000000000000000000000008152600401611f9c906150df565b60405180910390fd5b6000601254905060126000815480929190611fbf906150ff565b91905055506040518061010001604052808281526020013373ffffffffffffffffffffffffffffffffffffffff168152602001868152602001858152602001600e60009054906101000a900461ffff1661ffff168152602001600e60029054906101000a900461ffff1661ffff1681526020014281526020016000600681111561204c5761204b614638565b5b815250601760008381526020019081526020016000206000820151816000015560208201518160010160006101000a81548173ffffffffffffffffffffffffffffffffffffffff021916908373ffffffffffffffffffffffffffffffffffffffff160217905550604082015181600201556060820151816003015560808201518160040160006101000a81548161ffff021916908361ffff16021790555060a08201518160040160026101000a81548161ffff021916908361ffff16021790555060c0820151816005015560e08201518160060160006101000a81548160ff0219169083600681111561214257612141614638565b5b02179055509050506001601360003373ffffffffffffffffffffffffffffffffffffffff1673ffffffffffffffffffffffffffffffffffffffff16815260200190815260200160002060006101000a81548160ff02191690831515021790555080601960003373ffffffffffffffffffffffffffffffffffffffff1673ffffffffffffffffffffffffffffffffffffffff168152602001908152602001600020819055507fb7401c74d1dadd9b1c5778044555b38bcde050d7371b0e27212cfe1c418febcd8133604051612217929190615148565b60405180910390a1809250505092915050565b60008054906101000a900473ffffffffffffffffffffffffffffffffffffffff1673ffffffffffffffffffffffffffffffffffffffff163373ffffffffffffffffffffffffffffffffffffffff16146122b8576040517f08c379a00000000000000000000000000000000000000000000000000000000081526004016122af906147b0565b60405180910390fd5b80600080601760008481526020019081526020016000209050600081600001541415612319576040517f08c379a000000000000000000000000000000000000000000000000000000000815260040161231090614ba8565b60405180910390fd5b81600681111561232c5761232b614638565b5b8160060160009054906101000a900460ff1660068111156123505761234f614638565b5b14612390576040517f08c379a000000000000000000000000000000000000000000000000000000000815260040161238790614c3a565b60405180910390fd5b6000601760008681526020019081526020016000209050806002015460065410156123f0576040517f08c379a00000000000000000000000000000000000000000000000000000000081526004016123e7906151e3565b60405180910390fd5b6123f8611464565b612437576040517f08c379a000000000000000000000000000000000000000000000000000000000815260040161242e90615275565b60405180910390fd5b6040518060c00160405280868152602001600081526020016000815260200160008152602001428152602001600081525060186000878152602001908152602001600020600082015181600001556020820151816001015560408201518160020155606082015181600301556080820151816004015560a0820151816005015590505060028160060160006101000a81548160ff021916908360068111156124e2576124e1614638565b5b02179055506000601360008360010160009054906101000a900473ffffffffffffffffffffffffffffffffffffffff1673ffffffffffffffffffffffffffffffffffffffff1673ffffffffffffffffffffffffffffffffffffffff16815260200190815260200160002060006101000a81548160ff0219169083151502179055506125958160010160009054906101000a900473ffffffffffffffffffffffffffffffffffffffff168260020154613d79565b6125ae816002015460065461361c90919063ffffffff16565b6006819055506125cd8160020154601454613d6390919063ffffffff16565b6014819055507f073e754af3e7d644af8000094f3c23bc20ef9c40cc057bffa060b0230adf00f4856040516126029190614409565b60405180910390a15050505050565b6000339050600073ffffffffffffffffffffffffffffffffffffffff168173ffffffffffffffffffffffffffffffffffffffff161415612686576040517f08c379a000000000000000000000000000000000000000000000000000000000815260040161267d90614a3e565b60405180910390fd5b60008054906101000a900473ffffffffffffffffffffffffffffffffffffffff1673ffffffffffffffffffffffffffffffffffffffff168173ffffffffffffffffffffffffffffffffffffffff16141580156127305750600160009054906101000a900473ffffffffffffffffffffffffffffffffffffffff1673ffffffffffffffffffffffffffffffffffffffff168173ffffffffffffffffffffffffffffffffffffffff1614155b61276f576040517f08c379a000000000000000000000000000000000000000000000000000000000815260040161276690614ad0565b60405180910390fd5b6000601960008373ffffffffffffffffffffffffffffffffffffffff1673ffffffffffffffffffffffffffffffffffffffff16815260200190815260200160002054146127f1576040517f08c379a00000000000000000000000000000000000000000000000000000000081526004016127e890614b3c565b60405180910390fd5b6127fa82613b5b565b505050565b620f424081565b60055481565b60008054906101000a900473ffffffffffffffffffffffffffffffffffffffff1673ffffffffffffffffffffffffffffffffffffffff163373ffffffffffffffffffffffffffffffffffffffff161461289a576040517f08c379a0000000000000000000000000000000000000000000000000000000008152600401612891906147b0565b60405180910390fd5b80600260006017600084815260200190815260200160002090506000816000015414156128fc576040517f08c379a00000000000000000000000000000000000000000000000000000000081526004016128f390614ba8565b60405180910390fd5b81600681111561290f5761290e614638565b5b8160060160009054906101000a900460ff16600681111561293357612932614638565b5b14612973576040517f08c379a000000000000000000000000000000000000000000000000000000000815260040161296a90614c3a565b60405180910390fd5b600060176000868152602001908152602001600020905060038160060160006101000a81548160ff021916908360068111156129b2576129b1614638565b5b02179055506129e98160010160009054906101000a900473ffffffffffffffffffffffffffffffffffffffff168260020154613e2d565b612a028160020154600654613d6390919063ffffffff16565b600681905550612a21816002015460145461361c90919063ffffffff16565b6014819055507fb71becc91961a6b43bcc5b3b630f3dce02c7fd444cf3738c4f188062b1caf5bc85604051612a569190614409565b60405180910390a15050505050565b60008054906101000a900473ffffffffffffffffffffffffffffffffffffffff1673ffffffffffffffffffffffffffffffffffffffff163373ffffffffffffffffffffffffffffffffffffffff1614612af3576040517f08c379a0000000000000000000000000000000000000000000000000000000008152600401612aea906147b0565b60405180910390fd5b806201518011158015612b0a5750635fdd42808111155b612b49576040517f08c379a0000000000000000000000000000000000000000000000000000000008152600401612b4090615307565b60405180910390fd5b806010541115612b8e576040517f08c379a0000000000000000000000000000000000000000000000000000000008152600401612b8590615399565b60405180910390fd5b8060118190555050565b8060026000601760008481526020019081526020016000209050600081600001541415612bfa576040517f08c379a0000000000000000000000000000000000000000000000000000000008152600401612bf190614ba8565b60405180910390fd5b816006811115612c0d57612c0c614638565b5b8160060160009054906101000a900460ff166006811115612c3157612c30614638565b5b14612c71576040517f08c379a0000000000000000000000000000000000000000000000000000000008152600401612c6890614c3a565b60405180910390fd5b60006017600086815260200190815260200160002090503373ffffffffffffffffffffffffffffffffffffffff168160010160009054906101000a900473ffffffffffffffffffffffffffffffffffffffff1673ffffffffffffffffffffffffffffffffffffffff1614612d1a576040517f08c379a0000000000000000000000000000000000000000000000000000000008152600401612d119061542b565b60405180910390fd5b60048160060160006101000a81548160ff02191690836006811115612d4257612d41614638565b5b0217905550612d55338260020154613e2d565b612d6e816002015460035461361c90919063ffffffff16565b6003819055506000600260009054906101000a900473ffffffffffffffffffffffffffffffffffffffff1673ffffffffffffffffffffffffffffffffffffffff1663a9059cbb3384600201546040518363ffffffff1660e01b8152600401612dd7929190614d4f565b6020604051808303816000875af1158015612df6573d6000803e3d6000fd5b505050506040513d601f19601f82011682018060405250810190612e1a9190614da4565b905080612e2657600080fd5b505050505050565b600e60029054906101000a900461ffff1681565b600960009054906101000a900461ffff1681565b6000808360046000601760008481526020019081526020016000209050600081600001541415612ebb576040517f08c379a0000000000000000000000000000000000000000000000000000000008152600401612eb290614ba8565b60405180910390fd5b816006811115612ece57612ecd614638565b5b8160060160009054906101000a900460ff166006811115612ef257612ef1614638565b5b14612f32576040517f08c379a0000000000000000000000000000000000000000000000000000000008152600401612f2990614c3a565b60405180910390fd5b60006017600089815260200190815260200160002090503373ffffffffffffffffffffffffffffffffffffffff168160010160009054906101000a900473ffffffffffffffffffffffffffffffffffffffff1673ffffffffffffffffffffffffffffffffffffffff1614612fdb576040517f08c379a0000000000000000000000000000000000000000000000000000000008152600401612fd290615497565b60405180910390fd5b600080612fe78a613868565b915091506000612ff7838b613632565b90506130033382613f63565b828114156130395760058460060160006101000a81548160ff0219169083600681111561303357613032614638565b5b02179055505b6000601860008d8152602001908152602001600020905042816005018190555060006130778385866103e861ffff1661307291906154b7565b613949565b9050600061308e828561361c90919063ffffffff16565b905060006130b783600c60009054906101000a900461ffff1661ffff166103e861ffff16613949565b905061312d81600b6000600160009054906101000a900473ffffffffffffffffffffffffffffffffffffffff1673ffffffffffffffffffffffffffffffffffffffff1673ffffffffffffffffffffffffffffffffffffffff16815260200190815260200160002054613d6390919063ffffffff16565b600b6000600160009054906101000a900473ffffffffffffffffffffffffffffffffffffffff1673ffffffffffffffffffffffffffffffffffffffff1673ffffffffffffffffffffffffffffffffffffffff1681526020019081526020016000208190555060006131a96008546103e861ffff16600754613949565b905060006131c082600d546103e861ffff16613949565b905060006131e76131da858861361c90919063ffffffff16565b836103e861ffff16613949565b905061325c81600b60008060009054906101000a900473ffffffffffffffffffffffffffffffffffffffff1673ffffffffffffffffffffffffffffffffffffffff1673ffffffffffffffffffffffffffffffffffffffff16815260200190815260200160002054613d6390919063ffffffff16565b600b60008060009054906101000a900473ffffffffffffffffffffffffffffffffffffffff1673ffffffffffffffffffffffffffffffffffffffff1673ffffffffffffffffffffffffffffffffffffffff168152602001908152602001600020819055506132d7888860010154613d6390919063ffffffff16565b87600101819055506132f6858860020154613d6390919063ffffffff16565b8760020181905550613315868860030154613d6390919063ffffffff16565b87600301819055506133328560145461361c90919063ffffffff16565b6014819055506133716133606133518387613d6390919063ffffffff16565b8a61361c90919063ffffffff16565b600654613d6390919063ffffffff16565b60068190555087869f509f5050505050505050505050505050509250929050565b60196020528060005260406000206000915090505481565b6103e881565b6000600554600454116133c657600090506133e0565b6133dd60055460045461361c90919063ffffffff16565b90505b90565b60008054906101000a900473ffffffffffffffffffffffffffffffffffffffff1673ffffffffffffffffffffffffffffffffffffffff163373ffffffffffffffffffffffffffffffffffffffff1614613471576040517f08c379a0000000000000000000000000000000000000000000000000000000008152600401613468906147b0565b60405180910390fd5b8062015180111580156134885750635fdd42808111155b6134c7576040517f08c379a00000000000000000000000000000000000000000000000000000000081526004016134be9061557f565b60405180910390fd5b60115481111561350c576040517f08c379a000000000000000000000000000000000000000000000000000000000815260040161350390615611565b60405180910390fd5b8060108190555050565b60176020528060005260406000206000915090508060000154908060010160009054906101000a900473ffffffffffffffffffffffffffffffffffffffff16908060020154908060030154908060040160009054906101000a900461ffff16908060040160029054906101000a900461ffff16908060050154908060060160009054906101000a900460ff16905088565b600960029054906101000a900461ffff1681565b600181565b60006135eb60008054906101000a900473ffffffffffffffffffffffffffffffffffffffff1661172d565b905090565b60045481565b600260009054906101000a900473ffffffffffffffffffffffffffffffffffffffff1681565b6000818361362a9190614dd1565b905092915050565b60008183106136415781613643565b825b905092915050565b60008082141561365e5760009050613683565b6000600754141561367157819050613683565b61368082600754600554613949565b90505b919050565b6136b76136b26008546103e861ffff16600960009054906101000a900461ffff1661ffff16613949565b613b24565b600481905550565b6000808211613703576040517f08c379a00000000000000000000000000000000000000000000000000000000081526004016136fa906156a3565b60405180910390fd5b816006541015613748576040517f08c379a000000000000000000000000000000000000000000000000000000000815260040161373f90615735565b60405180910390fd5b60006137538361364b565b905061375f3382614033565b6137748360055461361c90919063ffffffff16565b60058190555061378f8360065461361c90919063ffffffff16565b6006819055506137aa8360035461361c90919063ffffffff16565b6003819055506000600260009054906101000a900473ffffffffffffffffffffffffffffffffffffffff1673ffffffffffffffffffffffffffffffffffffffff1663a9059cbb33866040518363ffffffff1660e01b815260040161380f929190614d4f565b6020604051808303816000875af115801561382e573d6000803e3d6000fd5b505050506040513d601f19601f820116820180604052508101906138529190614da4565b90508061385e57600080fd5b8192505050919050565b60008060006017600085815260200190815260200160002090506005600681111561389657613895614638565b5b8160060160009054906101000a900460ff1660068111156138ba576138b9614638565b5b14156138cd576000809250925050613944565b600060186000868152602001908152602001600020905060006138f08383614169565b9050600061390f8360020154856002015461361c90919063ffffffff16565b9050600061393661392783856103e861ffff16613949565b83613d6390919063ffffffff16565b905080839650965050505050505b915091565b6000806000613961858761426090919063ffffffff16565b9150915081156139875761397e84826142b490919063ffffffff16565b925050506139b1565b6139ac8561399e86896142b490919063ffffffff16565b6142ca90919063ffffffff16565b925050505b9392505050565b600080838311156139cf57600080915091506139d9565b6001838503915091505b9250929050565b6139f58160055461361c90919063ffffffff16565b6005819055506000613a068261364b565b9050600081905060006008541115613ac4576000613a2683600854613632565b9050613a3b818461361c90919063ffffffff16565b9150613a528160085461361c90919063ffffffff16565b600881905550613a60613688565b613a8a60008054906101000a900473ffffffffffffffffffffffffffffffffffffffff1682614033565b60006008541415613ac2577f883a758d29fbc9cd7a2d35544bccc2ab889fb1f5c5cbf51f4742fbd54e1c288960405160405180910390a15b505b6000811115613b1f577f93240c25f2681d1dc04f7f7b25450913fa05f74176dec51ea451d30293273937613b09613afa83613b24565b8561361c90919063ffffffff16565b604051613b169190614409565b60405180910390a15b505050565b600080821480613b3657506000600554145b15613b445760009050613b56565b613b5382600554600754613949565b90505b919050565b6000808211613b9f576040517f08c379a0000000000000000000000000000000000000000000000000000000008152600401613b96906157c7565b60405180910390fd5b60008054906101000a900473ffffffffffffffffffffffffffffffffffffffff1673ffffffffffffffffffffffffffffffffffffffff163373ffffffffffffffffffffffffffffffffffffffff161480613c1e5750600554600454118015613c1d5750613c1960055460045461361c90919063ffffffff16565b8211155b5b613c5d576040517f08c379a0000000000000000000000000000000000000000000000000000000008152600401613c5490615859565b60405180910390fd5b6000613c688361364b565b9050613c743384613f63565b613c8983600654613d6390919063ffffffff16565b600681905550613ca483600554613d6390919063ffffffff16565b600581905550613cfc81600a60003373ffffffffffffffffffffffffffffffffffffffff1673ffffffffffffffffffffffffffffffffffffffff16815260200190815260200160002054613d6390919063ffffffff16565b600a60003373ffffffffffffffffffffffffffffffffffffffff1673ffffffffffffffffffffffffffffffffffffffff16815260200190815260200160002081905550613d5481600754613d6390919063ffffffff16565b60078190555080915050919050565b60008183613d7191906154b7565b905092915050565b613dcb81601660008573ffffffffffffffffffffffffffffffffffffffff1673ffffffffffffffffffffffffffffffffffffffff16815260200190815260200160002054613d6390919063ffffffff16565b601660008473ffffffffffffffffffffffffffffffffffffffff1673ffffffffffffffffffffffffffffffffffffffff16815260200190815260200160002081905550613e2381601554613d6390919063ffffffff16565b6015819055505050565b80601660008473ffffffffffffffffffffffffffffffffffffffff1673ffffffffffffffffffffffffffffffffffffffff168152602001908152602001600020541015613eaf576040517f08c379a0000000000000000000000000000000000000000000000000000000008152600401613ea690615911565b60405180910390fd5b613f0181601660008573ffffffffffffffffffffffffffffffffffffffff1673ffffffffffffffffffffffffffffffffffffffff1681526020019081526020016000205461361c90919063ffffffff16565b601660008473ffffffffffffffffffffffffffffffffffffffff1673ffffffffffffffffffffffffffffffffffffffff16815260200190815260200160002081905550613f598160155461361c90919063ffffffff16565b6015819055505050565b6000600260009054906101000a900473ffffffffffffffffffffffffffffffffffffffff1673ffffffffffffffffffffffffffffffffffffffff166323b872dd8430856040518463ffffffff1660e01b8152600401613fc493929190615931565b6020604051808303816000875af1158015613fe3573d6000803e3d6000fd5b505050506040513d601f19601f820116820180604052508101906140079190614da4565b90508061401357600080fd5b61402882600354613d6390919063ffffffff16565b600381905550505050565b80600a60008473ffffffffffffffffffffffffffffffffffffffff1673ffffffffffffffffffffffffffffffffffffffff1681526020019081526020016000205410156140b5576040517f08c379a00000000000000000000000000000000000000000000000000000000081526004016140ac906159da565b60405180910390fd5b61410781600a60008573ffffffffffffffffffffffffffffffffffffffff1673ffffffffffffffffffffffffffffffffffffffff1681526020019081526020016000205461361c90919063ffffffff16565b600a60008473ffffffffffffffffffffffffffffffffffffffff1673ffffffffffffffffffffffffffffffffffffffff1681526020019081526020016000208190555061415f8160075461361c90919063ffffffff16565b6007819055505050565b60008061417a8360040154426142e0565b905060008061419a86600301548660040154613d6390919063ffffffff16565b90508042116141c1578560040160009054906101000a900461ffff1661ffff169150614248565b60006141cd82426142e0565b9050614244846142366141ff8a60040160029054906101000a900461ffff1661ffff16856142ca90919063ffffffff16565b6142288b60040160009054906101000a900461ffff1661ffff16896142ca90919063ffffffff16565b613d6390919063ffffffff16565b6142b490919063ffffffff16565b9250505b614255828461016d613949565b935050505092915050565b60008060008414156142795760016000915091506142ad565b6000838502905083858281614291576142906159fa565b5b04146142a45760008092509250506142ad565b60018192509250505b9250929050565b600081836142c29190615a29565b905092915050565b600081836142d89190615a5a565b905092915050565b6000806142f6848461361c90919063ffffffff16565b9050600061431062015180836142b490919063ffffffff16565b9050600061432a620151808461434a90919063ffffffff16565b111561433f57808061433b906150ff565b9150505b809250505092915050565b600081836143589190615ab4565b905092915050565b600080fd5b600073ffffffffffffffffffffffffffffffffffffffff82169050919050565b600061439082614365565b9050919050565b6143a081614385565b81146143ab57600080fd5b50565b6000813590506143bd81614397565b92915050565b6000602082840312156143d9576143d8614360565b5b60006143e7848285016143ae565b91505092915050565b6000819050919050565b614403816143f0565b82525050565b600060208201905061441e60008301846143fa565b92915050565b61442d81614385565b82525050565b60006020820190506144486000830184614424565b92915050565b600061ffff82169050919050565b6144658161444e565b82525050565b6000602082019050614480600083018461445c565b92915050565b61448f8161444e565b811461449a57600080fd5b50565b6000813590506144ac81614486565b92915050565b6000602082840312156144c8576144c7614360565b5b60006144d68482850161449d565b91505092915050565b6144e8816143f0565b81146144f357600080fd5b50565b600081359050614505816144df565b92915050565b60006020828403121561452157614520614360565b5b600061452f848285016144f6565b91505092915050565b60008115159050919050565b61454d81614538565b82525050565b60006020820190506145686000830184614544565b92915050565b600060c08201905061458360008301896143fa565b61459060208301886143fa565b61459d60408301876143fa565b6145aa60608301866143fa565b6145b760808301856143fa565b6145c460a08301846143fa565b979650505050505050565b600080604083850312156145e6576145e5614360565b5b60006145f4858286016144f6565b9250506020614605858286016144f6565b9150509250929050565b600060408201905061462460008301856143fa565b61463160208301846143fa565b9392505050565b7f4e487b7100000000000000000000000000000000000000000000000000000000600052602160045260246000fd5b6007811061467857614677614638565b5b50565b600081905061468982614667565b919050565b60006146998261467b565b9050919050565b6146a98161468e565b82525050565b6000610100820190506146c5600083018b6143fa565b6146d2602083018a614424565b6146df60408301896143fa565b6146ec60608301886143fa565b6146f9608083018761445c565b61470660a083018661445c565b61471360c08301856143fa565b61472060e08301846146a0565b9998505050505050505050565b600082825260208201905092915050565b7f4d616e616765643a2063616c6c6572206973206e6f7420746865206d616e616760008201527f6572000000000000000000000000000000000000000000000000000000000000602082015250565b600061479a60228361472d565b91506147a58261473e565b604082019050919050565b600060208201905081810360008301526147c98161478d565b9050919050565b7f415052206973206f7574206f6620626f756e6473000000000000000000000000600082015250565b600061480660148361472d565b9150614811826147d0565b602082019050919050565b60006020820190508181036000830152614835816147f9565b9050919050565b7f4e6577206d696e206c6f616e20616d6f756e74206973206c657373207468616e60008201527f207468652073616665206c696d69740000000000000000000000000000000000602082015250565b6000614898602f8361472d565b91506148a38261483c565b604082019050919050565b600060208201905081810360008301526148c78161488b565b9050919050565b7f42616e6b466169723a20756e7374616b6520616d6f756e742069732030000000600082015250565b6000614904601d8361472d565b915061490f826148ce565b602082019050919050565b60006020820190508181036000830152614933816148f7565b9050919050565b7f42616e6b466169723a2072657175657374656420616d6f756e74206973206e6f60008201527f7420617661696c61626c6520746f20626520756e7374616b6564000000000000602082015250565b6000614996603a8361472d565b91506149a18261493a565b604082019050919050565b600060208201905081810360008301526149c581614989565b9050919050565b7f42616e6b466169723a2041646472657373206973206e6f742070726573656e7460008201527f2e00000000000000000000000000000000000000000000000000000000000000602082015250565b6000614a2860218361472d565b9150614a33826149cc565b604082019050919050565b60006020820190508181036000830152614a5781614a1b565b9050919050565b7f42616e6b466169723a2057616c6c65742069732061206d616e61676572206f7260008201527f2070726f746f636f6c2e00000000000000000000000000000000000000000000602082015250565b6000614aba602a8361472d565b9150614ac582614a5e565b604082019050919050565b60006020820190508181036000830152614ae981614aad565b9050919050565b7f42616e6b466169723a2057616c6c6574206973206120626f72726f7765722e00600082015250565b6000614b26601f8361472d565b9150614b3182614af0565b602082019050919050565b60006020820190508181036000830152614b5581614b19565b9050919050565b7f4c6f616e206973206e6f7420666f756e642e0000000000000000000000000000600082015250565b6000614b9260128361472d565b9150614b9d82614b5c565b602082019050919050565b60006020820190508181036000830152614bc181614b85565b9050919050565b7f4c6f616e20646f6573206e6f74206861766520612076616c696420737461747560008201527f7320666f722074686973206f7065726174696f6e2e0000000000000000000000602082015250565b6000614c2460358361472d565b9150614c2f82614bc8565b604082019050919050565b60006020820190508181036000830152614c5381614c17565b9050919050565b7f4e487b7100000000000000000000000000000000000000000000000000000000600052601160045260246000fd5b6000614c948261444e565b9150614c9f8361444e565b925082821015614cb257614cb1614c5a565b5b828203905092915050565b7f42616e6b466169723a2070726f746f636f6c206561726e696e6773206973207a60008201527f65726f206f6e2074686973206163636f756e7400000000000000000000000000602082015250565b6000614d1960338361472d565b9150614d2482614cbd565b604082019050919050565b60006020820190508181036000830152614d4881614d0c565b9050919050565b6000604082019050614d646000830185614424565b614d7160208301846143fa565b9392505050565b614d8181614538565b8114614d8c57600080fd5b50565b600081519050614d9e81614d78565b92915050565b600060208284031215614dba57614db9614360565b5b6000614dc884828501614d8f565b91505092915050565b6000614ddc826143f0565b9150614de7836143f0565b925082821015614dfa57614df9614c5a565b5b828203905092915050565b7f42616e6b466169723a207374616b6520616d6f756e7420697320300000000000600082015250565b6000614e3b601b8361472d565b9150614e4682614e05565b602082019050919050565b60006020820190508181036000830152614e6a81614e2e565b9050919050565b7f42616e6b466169723a204170706c6963616e742069732061206c656e6465722e600082015250565b6000614ea760208361472d565b9150614eb282614e71565b602082019050919050565b60006020820190508181036000830152614ed681614e9a565b9050919050565b7f416e6f74686572206c6f616e206170706c69636174696f6e2069732070656e6460008201527f696e672e00000000000000000000000000000000000000000000000000000000602082015250565b6000614f3960248361472d565b9150614f4482614edd565b604082019050919050565b60006020820190508181036000830152614f6881614f2c565b9050919050565b7f4c6f616e20616d6f756e74206973207a65726f2e000000000000000000000000600082015250565b6000614fa560148361472d565b9150614fb082614f6f565b602082019050919050565b60006020820190508181036000830152614fd481614f98565b9050919050565b7f4c6f616e206475726174696f6e206973206c657373207468616e206d696e696d60008201527f756d20616c6c6f7765642e000000000000000000000000000000000000000000602082015250565b6000615037602b8361472d565b915061504282614fdb565b604082019050919050565b600060208201905081810360008301526150668161502a565b9050919050565b7f4c6f616e206475726174696f6e206973206d6f7265207468616e206d6178696d60008201527f756d20616c6c6f7765642e000000000000000000000000000000000000000000602082015250565b60006150c9602b8361472d565b91506150d48261506d565b604082019050919050565b600060208201905081810360008301526150f8816150bc565b9050919050565b600061510a826143f0565b91507fffffffffffffffffffffffffffffffffffffffffffffffffffffffffffffffff82141561513d5761513c614c5a565b5b600182019050919050565b600060408201905061515d60008301856143fa565b61516a6020830184614424565b9392505050565b7f42616e6b466169723a20506f6f6c206c697175696469747920697320696e737560008201527f6666696369656e7420746f20617070726f76652074686973206c6f616e2e0000602082015250565b60006151cd603e8361472d565b91506151d882615171565b604082019050919050565b600060208201905081810360008301526151fc816151c0565b9050919050565b7f42616e6b466169723a205374616b6520616d6f756e7420697320746f6f206c6f60008201527f7720746f20617070726f7665206e6577206c6f616e732e000000000000000000602082015250565b600061525f60378361472d565b915061526a82615203565b604082019050919050565b6000602082019050818103600083015261528e81615252565b9050919050565b7f4e6577206d6178206475726174696f6e206973206f7574206f6620626f756e6460008201527f7300000000000000000000000000000000000000000000000000000000000000602082015250565b60006152f160218361472d565b91506152fc82615295565b604082019050919050565b60006020820190508181036000830152615320816152e4565b9050919050565b7f4e6577206d6178206475726174696f6e206973206c657373207468616e20637560008201527f7272656e74206d696e206475726174696f6e0000000000000000000000000000602082015250565b600061538360328361472d565b915061538e82615327565b604082019050919050565b600060208201905081810360008301526153b281615376565b9050919050565b7f42616e6b466169723a205769746864726177616c20726571756573746572206960008201527f73206e6f742074686520626f72726f776572206f6e2074686973206c6f616e2e602082015250565b600061541560408361472d565b9150615420826153b9565b604082019050919050565b6000602082019050818103600083015261544481615408565b9050919050565b7f5061796572206973206e6f742074686520626f72726f7765722e000000000000600082015250565b6000615481601a8361472d565b915061548c8261544b565b602082019050919050565b600060208201905081810360008301526154b081615474565b9050919050565b60006154c2826143f0565b91506154cd836143f0565b9250827fffffffffffffffffffffffffffffffffffffffffffffffffffffffffffffffff0382111561550257615501614c5a565b5b828201905092915050565b7f4e6577206d696e206475726174696f6e206973206f7574206f6620626f756e6460008201527f7300000000000000000000000000000000000000000000000000000000000000602082015250565b600061556960218361472d565b91506155748261550d565b604082019050919050565b600060208201905081810360008301526155988161555c565b9050919050565b7f4e6577206d696e206475726174696f6e2069732067726561746572207468616e60008201527f2063757272656e74206d6178206475726174696f6e0000000000000000000000602082015250565b60006155fb60358361472d565b91506156068261559f565b604082019050919050565b6000602082019050818103600083015261562a816155ee565b9050919050565b7f42616e6b466169723a20706f6f6c207769746864726177616c20616d6f756e7460008201527f2069732030000000000000000000000000000000000000000000000000000000602082015250565b600061568d60258361472d565b915061569882615631565b604082019050919050565b600060208201905081810360008301526156bc81615680565b9050919050565b7f42616e6b466169723a20706f6f6c206c697175696469747920697320746f6f2060008201527f6c6f770000000000000000000000000000000000000000000000000000000000602082015250565b600061571f60238361472d565b915061572a826156c3565b604082019050919050565b6000602082019050818103600083015261574e81615712565b9050919050565b7f42616e6b466169723a20706f6f6c206465706f73697420616d6f756e7420697360008201527f2030000000000000000000000000000000000000000000000000000000000000602082015250565b60006157b160228361472d565b91506157bc82615755565b604082019050919050565b600060208201905081810360008301526157e0816157a4565b9050919050565b7f42616e6b466169723a204465706f73697420616d6f756e7420676f6573206f7660008201527f6572207468652063757272656e7420706f6f6c206c696d69742e000000000000602082015250565b6000615843603a8361472d565b915061584e826157e7565b604082019050919050565b6000602082019050818103600083015261587281615836565b9050919050565b7f42616e6b466169723a2072657175657374656420616d6f756e74206973206e6f60008201527f7420617661696c61626c6520696e207468652066756e64696e67206163636f7560208201527f6e74000000000000000000000000000000000000000000000000000000000000604082015250565b60006158fb60428361472d565b915061590682615879565b606082019050919050565b6000602082019050818103600083015261592a816158ee565b9050919050565b60006060820190506159466000830186614424565b6159536020830185614424565b61596060408301846143fa565b949350505050565b7f42616e6b466169723a20496e73756666696369656e742062616c616e6365206660008201527f6f722074686973206f7065726174696f6e2e0000000000000000000000000000602082015250565b60006159c460328361472d565b91506159cf82615968565b604082019050919050565b600060208201905081810360008301526159f3816159b7565b9050919050565b7f4e487b7100000000000000000000000000000000000000000000000000000000600052601260045260246000fd5b6000615a34826143f0565b9150615a3f836143f0565b925082615a4f57615a4e6159fa565b5b828204905092915050565b6000615a65826143f0565b9150615a70836143f0565b9250817fffffffffffffffffffffffffffffffffffffffffffffffffffffffffffffffff0483118215151615615aa957615aa8614c5a565b5b828202905092915050565b6000615abf826143f0565b9150615aca836143f0565b925082615ada57615ad96159fa565b5b82820690509291505056fea264697066735822122035930d6ade1bec6cff89932eb3c3369b3e04db345938e085601533883529c0b264736f6c634300080c0033",
  "immutableReferences": {},
  "source": "pragma solidity ^0.8.12;\n\nimport \"@openzeppelin/contracts/utils/math/SafeMath.sol\";\nimport \"@openzeppelin/contracts/utils/math/Math.sol\";\nimport \"./Lender.sol\";\n\n/**\n * @title BankFair Pool\n * @notice Provides deposit, withdrawal, and staking functionality. \n * @dev Extends Lender. \n *      Extends ManagedLendingPool by inheritance.\n */\ncontract BankFair is Lender {\n\n    using SafeMath for uint256;\n    \n    /**\n     * @notice Creates a BankFair pool.\n     * @param tokenAddress ERC20 token contract address to be used as main pool liquid currency.\n     * @param protocol Address of a wallet to accumulate protocol earnings.\n     * @param minLoanAmount Minimum amount to be borrowed per loan.\n     */\n    constructor(address tokenAddress, address protocol, uint256 minLoanAmount) Lender(tokenAddress, protocol, minLoanAmount) {\n        \n    }\n\n    /**\n     * @notice Deposit tokens to the pool.\n     * @dev Deposit amount must be non zero and not exceed amountDepositable().\n     *      An appropriate spend limit must be present at the token contract.\n     *      Caller must not be any of: manager, protocol, current borrower.\n     * @param amount Token amount to deposit.\n     */\n    function deposit(uint256 amount) external onlyLender {\n        enterPool(amount);\n    }\n\n    /**\n     * @notice Withdraw tokens from the pool.\n     * @dev Withdrawal amount must be non zero and not exceed amountWithdrawable().\n     *      Caller must not be any of: manager, protocol, current borrower.\n     * @param amount token amount to withdraw.\n     */\n    function withdraw(uint256 amount) external onlyLender {\n        exitPool(amount);\n    }\n\n    /**\n     * @notice Check wallet's token balance in the pool. Balance includes acquired earnings. \n     * @param wallet Address of the wallet to check the balance of.\n     * @return Token balance of the wallet in this pool.\n     */\n    function balanceOf(address wallet) public view returns (uint256) {\n        return sharesToTokens(poolShares[wallet]);\n    }\n\n    /**\n     * @notice Check token amount depositable by lenders at this time.\n     * @dev Return value depends on the pool state rather than caller's balance.\n     * @return Max amount of tokens depositable to the pool.\n     */\n    function amountDepositable() external view returns (uint256) {\n        if (poolFundsLimit <= poolFunds) {\n            return 0;\n        }\n\n        return poolFundsLimit.sub(poolFunds);\n    }\n\n    /**\n     * @notice Check token amount withdrawable by the caller at this time.\n     * @dev Return value depends on the callers balance, and is limited by pool liquidity.\n     * @return Max amount of tokens withdrawable by msg.sender.\n     */\n    function amountWithdrawable() external view returns (uint256) {\n        return Math.min(poolLiquidity, balanceOf(msg.sender));\n    }\n\n    /**\n     * @notice Withdraw funds of an approved loan.\n     * @dev Caller must be the borrower. \n     *      The loan must be in APPROVED status.\n     * @param loanId id of the loan to withdraw funds of. \n     */\n    function borrow(uint256 loanId) external loanInStatus(loanId, LoanStatus.APPROVED) {\n        Loan storage loan = loans[loanId];\n        require(loan.borrower == msg.sender, \"BankFair: Withdrawal requester is not the borrower on this loan.\");\n\n        loan.status = LoanStatus.FUNDS_WITHDRAWN;\n        decreaseLoanFunds(msg.sender, loan.amount);\n\n        tokenBalance = tokenBalance.sub(loan.amount);\n        bool success = IERC20(token).transfer(msg.sender, loan.amount);\n        if(!success) {\n            revert();\n        }\n    }\n\n    /**\n     * @notice Stake tokens into the pool.\n     * @dev Caller must be the manager.\n     *      Stake amount must be non zero.\n     *      An appropriate spend limit must be present at the token contract.\n     * @param amount Token amount to stake.\n     */\n    function stake(uint256 amount) external onlyManager {\n        require(amount > 0, \"BankFair: stake amount is 0\");\n\n        uint256 shares = enterPool(amount);\n        stakedShares = stakedShares.add(shares);\n        updatePoolLimit();\n    }\n    \n    /**\n     * @notice Unstake tokens from the pool.\n     * @dev Caller must be the manager.\n     *      Unstake amount must be non zero and not exceed amountUnstakable().\n     * @param amount Token amount to unstake.\n     */\n    function unstake(uint256 amount) external onlyManager {\n        require(amount > 0, \"BankFair: unstake amount is 0\");\n        require(amount <= amountUnstakable(), \"BankFair: requested amount is not available to be unstaked\");\n\n        uint256 shares = tokensToShares(amount);\n        stakedShares = stakedShares.sub(shares);\n        updatePoolLimit();\n        exitPool(amount);\n    }\n\n    /**\n     * @notice Check the manager's staked token balance in the pool.\n     * @return Token balance of the manager's stake.\n     */\n    function balanceStaked() public view returns (uint256) {\n        return balanceOf(manager);\n    }\n\n    /**\n     * @notice Check token amount unstakable by the manager at this time.\n     * @dev Return value depends on the manager's stake balance, and is limited by pool liquidity.\n     * @return Max amount of tokens unstakable by the manager.\n     */\n    function amountUnstakable() public view returns (uint256) {\n        uint256 lenderShares = totalPoolShares.sub(stakedShares);\n        uint256 lockedStakeShares = multiplyByFraction(lenderShares, targetStakePercent, ONE_HUNDRED_PERCENT - targetStakePercent);\n\n        return Math.min(poolLiquidity, sharesToTokens(stakedShares.sub(lockedStakeShares)));\n    }\n}\n",
  "sourcePath": "/home/fyakubov/ws/bankfair/contracts/contracts/BankFair.sol",
  "compiler": {
    "name": "solc",
    "version": "0.8.12+commit.f00d7308.Emscripten.clang"
  },
  "schemaVersion": "3.4.7",
  "updatedAt": "2022-05-02T12:51:45.658Z",
  "networkType": "ethereum",
  "devdoc": {
    "details": "Extends Lender.       Extends ManagedLendingPool by inheritance.",
    "kind": "dev",
    "methods": {
      "amountDepositable()": {
        "details": "Return value depends on the pool state rather than caller's balance.",
        "returns": {
          "_0": "Max amount of tokens depositable to the pool."
        }
      },
      "amountUnstakable()": {
        "details": "Return value depends on the manager's stake balance, and is limited by pool liquidity.",
        "returns": {
          "_0": "Max amount of tokens unstakable by the manager."
        }
      },
      "amountWithdrawable()": {
        "details": "Return value depends on the callers balance, and is limited by pool liquidity.",
        "returns": {
          "_0": "Max amount of tokens withdrawable by msg.sender."
        }
      },
      "approveLoan(uint256)": {
        "details": "Loan must be in APPLIED status.      Caller must be the manager.      Loan amount must not exceed poolLiquidity();      Stake to pool funds ratio must be good - poolCanLend() must be true."
      },
      "balanceOf(address)": {
        "params": {
          "wallet": "Address of the wallet to check the balance of."
        },
        "returns": {
          "_0": "Token balance of the wallet in this pool."
        }
      },
      "balanceStaked()": {
        "returns": {
          "_0": "Token balance of the manager's stake."
        }
      },
      "borrow(uint256)": {
        "details": "Caller must be the borrower.       The loan must be in APPROVED status.",
        "params": {
          "loanId": "id of the loan to withdraw funds of. "
        }
      },
      "cancelLoan(uint256)": {
        "details": "Loan must be in APPROVED status.      Caller must be the manager."
      },
      "constructor": {
        "params": {
          "minLoanAmount": "Minimum amount to be borrowed per loan.",
          "protocol": "Address of a wallet to accumulate protocol earnings.",
          "tokenAddress": "ERC20 token contract address to be used as main pool liquid currency."
        }
      },
      "defaultLoan(uint256)": {
        "details": "Loan must be in FUNDS_WITHDRAWN status.      Caller must be the manager."
      },
      "denyLoan(uint256)": {
        "details": "Loan must be in APPLIED status.      Caller must be the manager."
      },
      "deposit(uint256)": {
        "details": "Deposit amount must be non zero and not exceed amountDepositable().      An appropriate spend limit must be present at the token contract.      Caller must not be any of: manager, protocol, current borrower.",
        "params": {
          "amount": "Token amount to deposit."
        }
      },
      "loanBalanceDue(uint256)": {
        "details": "Loan must be in FUNDS_WITHDRAWN status.",
        "params": {
          "loanId": "ID of the loan to check the balance of."
        },
        "returns": {
          "_0": "Total amount due with interest on this loan."
        }
      },
      "poolCanLend()": {
        "returns": {
          "_0": "True if the staked funds provide at least a minimum ratio to the pool funds, False otherwise."
        }
      },
      "protocolEarningsOf(address)": {
        "details": "This method is useful for manager and protocol addresses.       Calling this method for a non-protocol associated addresses will return 0.",
        "params": {
          "wallet": "Address of the wallet to check the earnings balance of."
        },
        "returns": {
          "_0": "Accumulated earnings of the wallet from the protocol."
        }
      },
      "repay(uint256,uint256)": {
        "details": "Caller must be the borrower.      Loan must be in FUNDS_WITHDRAWN status.      Only the necessary sum is charged if amount exceeds amount due.      Amount charged will not exceed the amount parameter. ",
        "params": {
          "amount": "Payment amount in tokens.",
          "loanId": "ID of the loan to make a payment towards."
        },
        "returns": {
          "_0": "A pair of total amount changed including interest, and the interest charged."
        }
      },
      "requestLoan(uint256,uint256)": {
        "details": "Requested amount must be greater or equal to minAmount().      Loan duration must be between minDuration() and maxDuration().      Caller must not be a lender, protocol, or the manager.       Multiple pending applications from the same address are not allowed,      most recent loan/application of the caller must not have APPLIED status.",
        "params": {
          "loanDuration": "Loan duration in seconds. ",
          "requestedAmount": "Token amount to be borrowed."
        },
        "returns": {
          "_0": "ID of a new loan application."
        }
      },
      "setDefaultAPR(uint16)": {
        "details": "apr must be inclusively between SAFE_MIN_APR and SAFE_MAX_APR.      Caller must be the manager.",
        "params": {
          "apr": "Loan APR to be applied for the new loan requests."
        }
      },
      "setDefaultLateAPRDelta(uint16)": {
        "details": "lateAPRDelta must be inclusively between SAFE_MIN_APR and SAFE_MAX_APR.      Caller must be the manager.",
        "params": {
          "lateAPRDelta": "Loan late payment APR delta to be applied for the new loan requests."
        }
      },
      "setLoanMaxDuration(uint256)": {
        "details": "Duration must be in seconds and inclusively between SAFE_MIN_DURATION and SAFE_MAX_DURATION.      Caller must be the manager.",
        "params": {
          "duration": "Maximum loan duration to be enforced for the new loan requests."
        }
      },
      "setLoanMinDuration(uint256)": {
        "details": "Duration must be in seconds and inclusively between SAFE_MIN_DURATION and SAFE_MAX_DURATION.      Caller must be the manager.",
        "params": {
          "duration": "Maximum loan duration to be enforced for the new loan requests."
        }
      },
      "setMinLoanAmount(uint256)": {
        "details": "minLoanAmount must be greater than or equal to SAFE_MIN_AMOUNT.      Caller must be the manager.",
        "params": {
          "minLoanAmount": "minimum loan amount to be enforced for the new loan requests."
        }
      },
      "stake(uint256)": {
        "details": "Caller must be the manager.      Stake amount must be non zero.      An appropriate spend limit must be present at the token contract.",
        "params": {
          "amount": "Token amount to stake."
        }
      },
      "unstake(uint256)": {
        "details": "Caller must be the manager.      Unstake amount must be non zero and not exceed amountUnstakable().",
        "params": {
          "amount": "Token amount to unstake."
        }
      },
      "withdraw(uint256)": {
        "details": "Withdrawal amount must be non zero and not exceed amountWithdrawable().      Caller must not be any of: manager, protocol, current borrower.",
        "params": {
          "amount": "token amount to withdraw."
        }
      },
      "withdrawProtocolEarnings()": {
        "details": "protocolEarningsOf(msg.sender) must be greater than 0.      Caller's all accumulated earnings will be withdrawn."
      }
    },
    "title": "BankFair Pool",
    "version": 1
  },
  "userdoc": {
    "kind": "user",
    "methods": {
      "ONE_HUNDRED_PERCENT()": {
        "notice": "A constant representing 100%"
      },
      "PERCENT_DECIMALS()": {
        "notice": "Number of decimal digits in integer percent values used across the contract"
      },
      "SAFE_MAX_APR()": {
        "notice": "Safe maximum for APR values"
      },
      "SAFE_MAX_DURATION()": {
        "notice": "Contract math safe maximum loan duration in seconds"
      },
      "SAFE_MIN_AMOUNT()": {
        "notice": "Contract math safe minimum loan amount including token decimals"
      },
      "SAFE_MIN_APR()": {
        "notice": "Safe minimum for APR values"
      },
      "SAFE_MIN_DURATION()": {
        "notice": "Contract math safe minimum loan duration in seconds"
      },
      "amountDepositable()": {
        "notice": "Check token amount depositable by lenders at this time."
      },
      "amountUnstakable()": {
        "notice": "Check token amount unstakable by the manager at this time."
      },
      "amountWithdrawable()": {
        "notice": "Check token amount withdrawable by the caller at this time."
      },
      "approveLoan(uint256)": {
        "notice": "Approve a loan."
      },
      "balanceOf(address)": {
        "notice": "Check wallet's token balance in the pool. Balance includes acquired earnings. "
      },
      "balanceStaked()": {
        "notice": "Check the manager's staked token balance in the pool."
      },
      "borrow(uint256)": {
        "notice": "Withdraw funds of an approved loan."
      },
      "borrowedFunds()": {
        "notice": "Total funds borrowed at this time, including both withdrawn and allocated for withdrawal."
      },
      "cancelLoan(uint256)": {
        "notice": "Cancel a loan."
      },
      "constructor": {
        "notice": "Creates a BankFair pool."
      },
      "defaultAPR()": {
        "notice": "Loan APR to be applied for the new loan requests"
      },
      "defaultLateAPRDelta()": {
        "notice": "Loan late payment APR delta to be applied fot the new loan requests"
      },
      "defaultLoan(uint256)": {
        "notice": "Default a loan."
      },
      "denyLoan(uint256)": {
        "notice": "Deny a loan."
      },
      "deposit(uint256)": {
        "notice": "Deposit tokens to the pool."
      },
      "loanApprovalStakePercent()": {
        "notice": "minimum stake percentage level to allow loan approvals"
      },
      "loanBalanceDue(uint256)": {
        "notice": "Loan balance due including interest if paid in full at this time. "
      },
      "loanDetails(uint256)": {
        "notice": "Loan payment details by loanId. Loan detail is available only after a loan has been approved."
      },
      "loanFunds(address)": {
        "notice": "Borrowed funds allocated for withdrawal by borrower addresses"
      },
      "loanFundsPendingWithdrawal()": {
        "notice": "Total borrowed funds allocated for withdrawal but not yet withdrawn by the borrowers"
      },
      "loans(uint256)": {
        "notice": "Loan applications by loanId"
      },
      "manager()": {
        "notice": "Pool manager address"
      },
      "managerLeveragedEarningPercent()": {
        "notice": "Manager's leveraged earn factor represented as a percentage"
      },
      "maxDuration()": {
        "notice": "Maximum loan duration in seconds"
      },
      "minAmount()": {
        "notice": "Minimum allowed loan amount "
      },
      "minDuration()": {
        "notice": "Minimum loan duration in seconds"
      },
      "poolCanLend()": {
        "notice": "Check if the pool can lend based on the current stake levels."
      },
      "poolFunds()": {
        "notice": "Current amount of tokens in the pool, including both liquid and borrowed funds"
      },
      "poolFundsLimit()": {
        "notice": "MAX amount of tokens allowed in the pool based on staked assets"
      },
      "poolLiquidity()": {
        "notice": "Current amount of liquid tokens, available to lend/withdraw/borrow"
      },
      "protocolEarningPercent()": {
        "notice": "Percentage of paid interest to be allocated as protocol earnings"
      },
      "protocolEarningsOf(address)": {
        "notice": "Check the special addresses' earnings from the protocol. "
      },
      "protocolWallet()": {
        "notice": "Protocol wallet address"
      },
      "recentLoanIdOf(address)": {
        "notice": "Recent loanId of an address. Value of 0 means that the address doe not have any loan requests"
      },
      "repay(uint256,uint256)": {
        "notice": "Make a payment towards a loan."
      },
      "requestLoan(uint256,uint256)": {
        "notice": "Request a new loan."
      },
      "setDefaultAPR(uint16)": {
        "notice": "Set annual loan interest rate for the future loans."
      },
      "setDefaultLateAPRDelta(uint16)": {
        "notice": "Set late payment annual loan interest rate delta for the future loans."
      },
      "setLoanMaxDuration(uint256)": {
        "notice": "Set maximum loan duration for the future loans."
      },
      "setLoanMinDuration(uint256)": {
        "notice": "Set maximum loan duration for the future loans."
      },
      "setMinLoanAmount(uint256)": {
        "notice": "Set a minimum loan amount for the future loans."
      },
      "stake(uint256)": {
        "notice": "Stake tokens into the pool."
      },
      "stakedShares()": {
        "notice": "Manager's staked shares"
      },
      "targetStakePercent()": {
        "notice": "Target percentage ratio of staked shares to total shares"
      },
      "token()": {
        "notice": "Address of an ERC20 token used by the pool"
      },
      "tokenBalance()": {
        "notice": "Total tokens currently held by this contract"
      },
      "totalPoolShares()": {
        "notice": "Total pool shares present"
      },
      "unstake(uint256)": {
        "notice": "Unstake tokens from the pool."
      },
      "withdraw(uint256)": {
        "notice": "Withdraw tokens from the pool."
      },
      "withdrawProtocolEarnings()": {
        "notice": "Withdraws protocol earnings belonging to the caller."
      }
    },
    "notice": "Provides deposit, withdrawal, and staking functionality. ",
    "version": 1
  }
}